{
  "_format": "hh-sol-artifact-1",
  "contractName": "DOGENSTEIN",
  "sourceName": "contracts/Sarabi.sol",
  "abi": [
    {
      "inputs": [],
      "stateMutability": "nonpayable",
      "type": "constructor"
    },
    {
      "anonymous": false,
      "inputs": [
        {
          "indexed": true,
          "internalType": "address",
          "name": "owner",
          "type": "address"
        },
        {
          "indexed": true,
          "internalType": "address",
          "name": "spender",
          "type": "address"
        },
        {
          "indexed": false,
          "internalType": "uint256",
          "name": "value",
          "type": "uint256"
        }
      ],
      "name": "Approval",
      "type": "event"
    },
    {
      "anonymous": false,
      "inputs": [
        {
          "indexed": true,
          "internalType": "address",
          "name": "account",
          "type": "address"
        },
        {
          "indexed": false,
          "internalType": "bool",
          "name": "isExcluded",
          "type": "bool"
        }
      ],
      "name": "ExcludeFromFees",
      "type": "event"
    },
    {
      "anonymous": false,
      "inputs": [
        {
          "indexed": true,
          "internalType": "address",
          "name": "previousOwner",
          "type": "address"
        },
        {
          "indexed": true,
          "internalType": "address",
          "name": "newOwner",
          "type": "address"
        }
      ],
      "name": "OwnershipTransferred",
      "type": "event"
    },
    {
      "anonymous": false,
      "inputs": [
        {
          "indexed": false,
          "internalType": "uint256",
          "name": "tokensIntoLiqudity",
          "type": "uint256"
        },
        {
          "indexed": false,
          "internalType": "uint256",
          "name": "ethReceived",
          "type": "uint256"
        }
      ],
      "name": "SwapAndLiquify",
      "type": "event"
    },
    {
      "anonymous": false,
      "inputs": [
        {
          "indexed": false,
          "internalType": "bool",
          "name": "enabled",
          "type": "bool"
        }
      ],
      "name": "SwapAndLiquifyEnabledUpdated",
      "type": "event"
    },
    {
      "anonymous": false,
      "inputs": [
        {
          "indexed": true,
          "internalType": "address",
          "name": "from",
          "type": "address"
        },
        {
          "indexed": true,
          "internalType": "address",
          "name": "to",
          "type": "address"
        },
        {
          "indexed": false,
          "internalType": "uint256",
          "name": "value",
          "type": "uint256"
        }
      ],
      "name": "Transfer",
      "type": "event"
    },
    {
      "inputs": [
        {
          "internalType": "address",
          "name": "",
          "type": "address"
        }
      ],
      "name": "_isBlacklisted",
      "outputs": [
        {
          "internalType": "bool",
          "name": "",
          "type": "bool"
        }
      ],
      "stateMutability": "view",
      "type": "function"
    },
    {
      "inputs": [
        {
          "internalType": "address",
          "name": "owner",
          "type": "address"
        },
        {
          "internalType": "address",
          "name": "spender",
          "type": "address"
        }
      ],
      "name": "allowance",
      "outputs": [
        {
          "internalType": "uint256",
          "name": "",
          "type": "uint256"
        }
      ],
      "stateMutability": "view",
      "type": "function"
    },
    {
      "inputs": [
        {
          "internalType": "address",
          "name": "spender",
          "type": "address"
        },
        {
          "internalType": "uint256",
          "name": "amount",
          "type": "uint256"
        }
      ],
      "name": "approve",
      "outputs": [
        {
          "internalType": "bool",
          "name": "",
          "type": "bool"
        }
      ],
      "stateMutability": "nonpayable",
      "type": "function"
    },
    {
      "inputs": [
        {
          "internalType": "address",
          "name": "account",
          "type": "address"
        }
      ],
      "name": "balanceOf",
      "outputs": [
        {
          "internalType": "uint256",
          "name": "",
          "type": "uint256"
        }
      ],
      "stateMutability": "view",
      "type": "function"
    },
    {
      "inputs": [
        {
          "internalType": "address",
          "name": "account",
          "type": "address"
        },
        {
          "internalType": "bool",
          "name": "value",
          "type": "bool"
        }
      ],
      "name": "blacklistBots",
      "outputs": [],
      "stateMutability": "nonpayable",
      "type": "function"
    },
    {
      "inputs": [],
      "name": "burnBuyFee",
      "outputs": [
        {
          "internalType": "uint256",
          "name": "",
          "type": "uint256"
        }
      ],
      "stateMutability": "view",
      "type": "function"
    },
    {
      "inputs": [],
      "name": "burnSellFee",
      "outputs": [
        {
          "internalType": "uint256",
          "name": "",
          "type": "uint256"
        }
      ],
      "stateMutability": "view",
      "type": "function"
    },
    {
      "inputs": [],
      "name": "deadWallet",
      "outputs": [
        {
          "internalType": "address",
          "name": "",
          "type": "address"
        }
      ],
      "stateMutability": "view",
      "type": "function"
    },
    {
      "inputs": [],
      "name": "decimals",
      "outputs": [
        {
          "internalType": "uint8",
          "name": "",
          "type": "uint8"
        }
      ],
      "stateMutability": "view",
      "type": "function"
    },
    {
      "inputs": [
        {
          "internalType": "address",
          "name": "spender",
          "type": "address"
        },
        {
          "internalType": "uint256",
          "name": "subtractedValue",
          "type": "uint256"
        }
      ],
      "name": "decreaseAllowance",
      "outputs": [
        {
          "internalType": "bool",
          "name": "",
          "type": "bool"
        }
      ],
      "stateMutability": "nonpayable",
      "type": "function"
    },
    {
      "inputs": [
        {
          "internalType": "address",
          "name": "account",
          "type": "address"
        },
        {
          "internalType": "bool",
          "name": "excluded",
          "type": "bool"
        }
      ],
      "name": "excludeFromFees",
      "outputs": [],
      "stateMutability": "nonpayable",
      "type": "function"
    },
    {
      "inputs": [
        {
          "internalType": "address",
          "name": "spender",
          "type": "address"
        },
        {
          "internalType": "uint256",
          "name": "addedValue",
          "type": "uint256"
        }
      ],
      "name": "increaseAllowance",
      "outputs": [
        {
          "internalType": "bool",
          "name": "",
          "type": "bool"
        }
      ],
      "stateMutability": "nonpayable",
      "type": "function"
    },
    {
      "inputs": [
        {
          "internalType": "address",
          "name": "account",
          "type": "address"
        }
      ],
      "name": "isExcludedFromFees",
      "outputs": [
        {
          "internalType": "bool",
          "name": "",
          "type": "bool"
        }
      ],
      "stateMutability": "view",
      "type": "function"
    },
    {
      "inputs": [],
      "name": "liquidityBuyFee",
      "outputs": [
        {
          "internalType": "uint256",
          "name": "",
          "type": "uint256"
        }
      ],
      "stateMutability": "view",
      "type": "function"
    },
    {
      "inputs": [],
      "name": "liquiditySellFee",
      "outputs": [
        {
          "internalType": "uint256",
          "name": "",
          "type": "uint256"
        }
      ],
      "stateMutability": "view",
      "type": "function"
    },
    {
      "inputs": [],
      "name": "marketingBuyFee",
      "outputs": [
        {
          "internalType": "uint256",
          "name": "",
          "type": "uint256"
        }
      ],
      "stateMutability": "view",
      "type": "function"
    },
    {
      "inputs": [],
      "name": "marketingSellFee",
      "outputs": [
        {
          "internalType": "uint256",
          "name": "",
          "type": "uint256"
        }
      ],
      "stateMutability": "view",
      "type": "function"
    },
    {
      "inputs": [],
      "name": "marketingWallet",
      "outputs": [
        {
          "internalType": "address payable",
          "name": "",
          "type": "address"
        }
      ],
      "stateMutability": "view",
      "type": "function"
    },
    {
      "inputs": [],
      "name": "maxTransactionAmount",
      "outputs": [
        {
          "internalType": "uint256",
          "name": "",
          "type": "uint256"
        }
      ],
      "stateMutability": "view",
      "type": "function"
    },
    {
      "inputs": [],
      "name": "maxWalletToken",
      "outputs": [
        {
          "internalType": "uint256",
          "name": "",
          "type": "uint256"
        }
      ],
      "stateMutability": "view",
      "type": "function"
    },
    {
      "inputs": [],
      "name": "name",
      "outputs": [
        {
          "internalType": "string",
          "name": "",
          "type": "string"
        }
      ],
      "stateMutability": "view",
      "type": "function"
    },
    {
      "inputs": [],
      "name": "owner",
      "outputs": [
        {
          "internalType": "address",
          "name": "",
          "type": "address"
        }
      ],
      "stateMutability": "view",
      "type": "function"
    },
    {
      "inputs": [],
      "name": "renounceOwnership",
      "outputs": [],
      "stateMutability": "nonpayable",
      "type": "function"
    },
    {
      "inputs": [
        {
          "internalType": "uint256",
          "name": "_percent",
          "type": "uint256"
        }
      ],
      "name": "setMaxTxAmount",
      "outputs": [],
      "stateMutability": "nonpayable",
      "type": "function"
    },
    {
      "inputs": [
        {
          "internalType": "uint256",
          "name": "_percent",
          "type": "uint256"
        }
      ],
      "name": "setMaxWalletLimit",
      "outputs": [],
      "stateMutability": "nonpayable",
      "type": "function"
    },
    {
      "inputs": [
        {
          "internalType": "bool",
          "name": "_enabled",
          "type": "bool"
        }
      ],
      "name": "setSwapAndLiquifyEnabled",
      "outputs": [],
      "stateMutability": "nonpayable",
      "type": "function"
    },
    {
      "inputs": [
        {
          "internalType": "uint256",
          "name": "_newAmount",
          "type": "uint256"
        }
      ],
      "name": "setSwapTokensAtAmouunt",
      "outputs": [],
      "stateMutability": "nonpayable",
      "type": "function"
    },
    {
      "inputs": [
        {
          "internalType": "address payable",
          "name": "_marketing",
          "type": "address"
        },
        {
          "internalType": "address payable",
          "name": "_team",
          "type": "address"
        }
      ],
      "name": "setWallets",
      "outputs": [],
      "stateMutability": "nonpayable",
      "type": "function"
    },
    {
      "inputs": [],
      "name": "swapAndLiquifyEnabled",
      "outputs": [
        {
          "internalType": "bool",
          "name": "",
          "type": "bool"
        }
      ],
      "stateMutability": "view",
      "type": "function"
    },
    {
      "inputs": [],
      "name": "swapTokensAtAmount",
      "outputs": [
        {
          "internalType": "uint256",
          "name": "",
          "type": "uint256"
        }
      ],
      "stateMutability": "view",
      "type": "function"
    },
    {
      "inputs": [],
      "name": "symbol",
      "outputs": [
        {
          "internalType": "string",
          "name": "",
          "type": "string"
        }
      ],
      "stateMutability": "view",
      "type": "function"
    },
    {
      "inputs": [],
      "name": "teamBuyFee",
      "outputs": [
        {
          "internalType": "uint256",
          "name": "",
          "type": "uint256"
        }
      ],
      "stateMutability": "view",
      "type": "function"
    },
    {
      "inputs": [],
      "name": "teamSellFee",
      "outputs": [
        {
          "internalType": "uint256",
          "name": "",
          "type": "uint256"
        }
      ],
      "stateMutability": "view",
      "type": "function"
    },
    {
      "inputs": [],
      "name": "teamWallet",
      "outputs": [
        {
          "internalType": "address payable",
          "name": "",
          "type": "address"
        }
      ],
      "stateMutability": "view",
      "type": "function"
    },
    {
      "inputs": [],
      "name": "totalSupply",
      "outputs": [
        {
          "internalType": "uint256",
          "name": "",
          "type": "uint256"
        }
      ],
      "stateMutability": "view",
      "type": "function"
    },
    {
      "inputs": [
        {
          "internalType": "address",
          "name": "to",
          "type": "address"
        },
        {
          "internalType": "uint256",
          "name": "amount",
          "type": "uint256"
        }
      ],
      "name": "transfer",
      "outputs": [
        {
          "internalType": "bool",
          "name": "",
          "type": "bool"
        }
      ],
      "stateMutability": "nonpayable",
      "type": "function"
    },
    {
      "inputs": [
        {
          "internalType": "address",
          "name": "from",
          "type": "address"
        },
        {
          "internalType": "address",
          "name": "to",
          "type": "address"
        },
        {
          "internalType": "uint256",
          "name": "amount",
          "type": "uint256"
        }
      ],
      "name": "transferFrom",
      "outputs": [
        {
          "internalType": "bool",
          "name": "",
          "type": "bool"
        }
      ],
      "stateMutability": "nonpayable",
      "type": "function"
    },
    {
      "inputs": [
        {
          "internalType": "address",
          "name": "newOwner",
          "type": "address"
        }
      ],
      "name": "transferOwnership",
      "outputs": [],
      "stateMutability": "nonpayable",
      "type": "function"
    },
    {
      "inputs": [],
      "name": "uniswapV2Pair",
      "outputs": [
        {
          "internalType": "address",
          "name": "",
          "type": "address"
        }
      ],
      "stateMutability": "view",
      "type": "function"
    },
    {
      "inputs": [],
      "name": "uniswapV2Router",
      "outputs": [
        {
          "internalType": "contract IUniswapV2Router02",
          "name": "",
          "type": "address"
        }
      ],
      "stateMutability": "view",
      "type": "function"
    },
    {
      "inputs": [
        {
          "internalType": "uint256",
          "name": "_liqFee",
          "type": "uint256"
        },
        {
          "internalType": "uint256",
          "name": "_markFee",
          "type": "uint256"
        },
        {
          "internalType": "uint256",
          "name": "_teamFee",
          "type": "uint256"
        },
        {
          "internalType": "uint256",
          "name": "_burnFee",
          "type": "uint256"
        }
      ],
      "name": "updateBuyFee",
      "outputs": [],
      "stateMutability": "nonpayable",
      "type": "function"
    },
    {
      "inputs": [
        {
          "internalType": "uint256",
          "name": "_liqFee",
          "type": "uint256"
        },
        {
          "internalType": "uint256",
          "name": "_markFee",
          "type": "uint256"
        },
        {
          "internalType": "uint256",
          "name": "_teamFee",
          "type": "uint256"
        },
        {
          "internalType": "uint256",
          "name": "_burnFee",
          "type": "uint256"
        }
      ],
      "name": "updateSellFee",
      "outputs": [],
      "stateMutability": "nonpayable",
      "type": "function"
    },
    {
      "stateMutability": "payable",
      "type": "receive"
    }
  ],
  "bytecode": "0x60a06040526a0422ca8b0a00a4250000006007556a108b2a2c280290940000006008556a108b2a2c280290940000006009556001600a556003600b556002600c556001600d55600d54600c54600b54600a546200005d9190620009d4565b620000699190620009d4565b620000759190620009d4565b600e556001600f55600360105560026011556001601255601254601154601054600f54620000a49190620009d4565b620000b09190620009d4565b620000bc9190620009d4565b6013556001601460016101000a81548160ff021916908315150217905550738dde9bb7eccba2f86595ce726d235855fba6169f601460026101000a81548173ffffffffffffffffffffffffffffffffffffffff021916908373ffffffffffffffffffffffffffffffffffffffff16021790555073d0496f389cf4187f23e8d16f0ec20d2efe5e8113601560006101000a81548173ffffffffffffffffffffffffffffffffffffffff021916908373ffffffffffffffffffffffffffffffffffffffff16021790555061dead601660006101000a81548173ffffffffffffffffffffffffffffffffffffffff021916908373ffffffffffffffffffffffffffffffffffffffff160217905550348015620001d457600080fd5b506040518060400160405280601381526020017f446f67652058204672616e6b656e737465696e000000000000000000000000008152506040518060400160405280600a81526020017f444f47454e535445494e00000000000000000000000000000000000000000000815250816003908162000252919062000c7f565b50806004908162000264919062000c7f565b505050620002876200027b6200055260201b60201c565b6200055a60201b60201c565b6000737a250d5630b4cf539739df2c5dacb4c659f2488d905060008173ffffffffffffffffffffffffffffffffffffffff1663c45a01556040518163ffffffff1660e01b8152600401602060405180830381865afa158015620002ee573d6000803e3d6000fd5b505050506040513d601f19601f8201168201806040525081019062000314919062000dd0565b73ffffffffffffffffffffffffffffffffffffffff1663c9c65396308473ffffffffffffffffffffffffffffffffffffffff1663ad5c46486040518163ffffffff1660e01b8152600401602060405180830381865afa1580156200037c573d6000803e3d6000fd5b505050506040513d601f19601f82011682018060405250810190620003a2919062000dd0565b6040518363ffffffff1660e01b8152600401620003c192919062000e13565b6020604051808303816000875af1158015620003e1573d6000803e3d6000fd5b505050506040513d601f19601f8201168201806040525081019062000407919062000dd0565b905081600660006101000a81548173ffffffffffffffffffffffffffffffffffffffff021916908373ffffffffffffffffffffffffffffffffffffffff1602179055508073ffffffffffffffffffffffffffffffffffffffff1660808173ffffffffffffffffffffffffffffffffffffffff1681525050620004a0620004926200062060201b60201c565b60016200064a60201b60201c565b620004d5601460029054906101000a900473ffffffffffffffffffffffffffffffffffffffff1660016200064a60201b60201c565b6200050a601560009054906101000a900473ffffffffffffffffffffffffffffffffffffffff1660016200064a60201b60201c565b6200051d3060016200064a60201b60201c565b6200054a620005316200062060201b60201c565b6b033b2e3c9fd0803ce80000006200081960201b60201c565b505062001035565b600033905090565b6000600560009054906101000a900473ffffffffffffffffffffffffffffffffffffffff16905081600560006101000a81548173ffffffffffffffffffffffffffffffffffffffff021916908373ffffffffffffffffffffffffffffffffffffffff1602179055508173ffffffffffffffffffffffffffffffffffffffff168173ffffffffffffffffffffffffffffffffffffffff167f8be0079c531659141344cd1fd0a4f28419497f9722a3daafe3b4186f6b6457e060405160405180910390a35050565b6000600560009054906101000a900473ffffffffffffffffffffffffffffffffffffffff16905090565b6200065a6200055260201b60201c565b73ffffffffffffffffffffffffffffffffffffffff16620006806200062060201b60201c565b73ffffffffffffffffffffffffffffffffffffffff1614620006d9576040517f08c379a0000000000000000000000000000000000000000000000000000000008152600401620006d09062000ea1565b60405180910390fd5b801515601860008473ffffffffffffffffffffffffffffffffffffffff1673ffffffffffffffffffffffffffffffffffffffff16815260200190815260200160002060009054906101000a900460ff161515036200076e576040517f08c379a0000000000000000000000000000000000000000000000000000000008152600401620007659062000f39565b60405180910390fd5b80601860008473ffffffffffffffffffffffffffffffffffffffff1673ffffffffffffffffffffffffffffffffffffffff16815260200190815260200160002060006101000a81548160ff0219169083151502179055508173ffffffffffffffffffffffffffffffffffffffff167f9d8f7706ea1113d1a167b526eca956215946dd36cc7df39eb16180222d8b5df7826040516200080d919062000f78565b60405180910390a25050565b600073ffffffffffffffffffffffffffffffffffffffff168273ffffffffffffffffffffffffffffffffffffffff16036200088b576040517f08c379a0000000000000000000000000000000000000000000000000000000008152600401620008829062000fe5565b60405180910390fd5b6200089f600083836200099160201b60201c565b8060026000828254620008b39190620009d4565b92505081905550806000808473ffffffffffffffffffffffffffffffffffffffff1673ffffffffffffffffffffffffffffffffffffffff16815260200190815260200160002060008282546200090a9190620009d4565b925050819055508173ffffffffffffffffffffffffffffffffffffffff16600073ffffffffffffffffffffffffffffffffffffffff167fddf252ad1be2c89b69c2b068fc378daa952ba7f163c4a11628f55a4df523b3ef8360405162000971919062001018565b60405180910390a36200098d600083836200099660201b60201c565b5050565b505050565b505050565b6000819050919050565b7f4e487b7100000000000000000000000000000000000000000000000000000000600052601160045260246000fd5b6000620009e1826200099b565b9150620009ee836200099b565b925082820190508082111562000a095762000a08620009a5565b5b92915050565b600081519050919050565b7f4e487b7100000000000000000000000000000000000000000000000000000000600052604160045260246000fd5b7f4e487b7100000000000000000000000000000000000000000000000000000000600052602260045260246000fd5b6000600282049050600182168062000a9157607f821691505b60208210810362000aa75762000aa662000a49565b5b50919050565b60008190508160005260206000209050919050565b60006020601f8301049050919050565b600082821b905092915050565b60006008830262000b117fffffffffffffffffffffffffffffffffffffffffffffffffffffffffffffffff8262000ad2565b62000b1d868362000ad2565b95508019841693508086168417925050509392505050565b6000819050919050565b600062000b6062000b5a62000b54846200099b565b62000b35565b6200099b565b9050919050565b6000819050919050565b62000b7c8362000b3f565b62000b9462000b8b8262000b67565b84845462000adf565b825550505050565b600090565b62000bab62000b9c565b62000bb881848462000b71565b505050565b5b8181101562000be05762000bd460008262000ba1565b60018101905062000bbe565b5050565b601f82111562000c2f5762000bf98162000aad565b62000c048462000ac2565b8101602085101562000c14578190505b62000c2c62000c238562000ac2565b83018262000bbd565b50505b505050565b600082821c905092915050565b600062000c546000198460080262000c34565b1980831691505092915050565b600062000c6f838362000c41565b9150826002028217905092915050565b62000c8a8262000a0f565b67ffffffffffffffff81111562000ca65762000ca562000a1a565b5b62000cb2825462000a78565b62000cbf82828562000be4565b600060209050601f83116001811462000cf7576000841562000ce2578287015190505b62000cee858262000c61565b86555062000d5e565b601f19841662000d078662000aad565b60005b8281101562000d315784890151825560018201915060208501945060208101905062000d0a565b8683101562000d51578489015162000d4d601f89168262000c41565b8355505b6001600288020188555050505b505050505050565b600080fd5b600073ffffffffffffffffffffffffffffffffffffffff82169050919050565b600062000d988262000d6b565b9050919050565b62000daa8162000d8b565b811462000db657600080fd5b50565b60008151905062000dca8162000d9f565b92915050565b60006020828403121562000de95762000de862000d66565b5b600062000df98482850162000db9565b91505092915050565b62000e0d8162000d8b565b82525050565b600060408201905062000e2a600083018562000e02565b62000e39602083018462000e02565b9392505050565b600082825260208201905092915050565b7f4f776e61626c653a2063616c6c6572206973206e6f7420746865206f776e6572600082015250565b600062000e8960208362000e40565b915062000e968262000e51565b602082019050919050565b6000602082019050818103600083015262000ebc8162000e7a565b9050919050565b7f4163636f756e7420697320616c7265616479207468652076616c7565206f662060008201527f276578636c756465642700000000000000000000000000000000000000000000602082015250565b600062000f21602a8362000e40565b915062000f2e8262000ec3565b604082019050919050565b6000602082019050818103600083015262000f548162000f12565b9050919050565b60008115159050919050565b62000f728162000f5b565b82525050565b600060208201905062000f8f600083018462000f67565b92915050565b7f45524332303a206d696e7420746f20746865207a65726f206164647265737300600082015250565b600062000fcd601f8362000e40565b915062000fda8262000f95565b602082019050919050565b60006020820190508181036000830152620010008162000fbe565b9050919050565b62001012816200099b565b82525050565b60006020820190506200102f600083018462001007565b92915050565b608051613e3c6200106d60003960008181610c3f01528181611d6801528181611eff0152818161202701526120c00152613e3c6000f3fe6080604052600436106102555760003560e01c8063750c11b611610139578063c0246668116100b6578063dd62ed3e1161007a578063dd62ed3e146108d9578063e2f4560514610916578063e6c75f7114610941578063e7f444b31461096c578063ec28438a14610997578063f2fde38b146109c05761025c565b8063c024666814610808578063c49b9a8014610831578063c8c8ebe41461085a578063ccb6135814610885578063d3f6a157146108b05761025c565b80638da5cb5b116100fd5780638da5cb5b1461070f57806395d89b411461073a578063a457c2d714610765578063a9059cbb146107a2578063aba88f02146107df5761025c565b8063750c11b61461063a57806375f0a874146106635780637ae3ff471461068e5780637e761377146106b957806385141a77146106e45761025c565b806339509351116101d25780635992704411610196578063599270441461053e578063680789521461056957806370a0823114610594578063715018a6146105d15780637187507a146105e8578063728d41c9146106115761025c565b806339509351146104455780633ff4c4781461048257806349bd5a5e146104ab5780634a74bb02146104d65780634fbee193146105015761025c565b806319998bbb1161021957806319998bbb1461034a5780631cdd3be3146103755780631d38ff96146103b257806323b872dd146103dd578063313ce5671461041a5761025c565b806306fdde0314610261578063095ea7b31461028c578063099d0d30146102c95780631694505e146102f457806318160ddd1461031f5761025c565b3661025c57005b600080fd5b34801561026d57600080fd5b506102766109e9565b6040516102839190612ca1565b60405180910390f35b34801561029857600080fd5b506102b360048036038101906102ae9190612d5c565b610a7b565b6040516102c09190612db7565b60405180910390f35b3480156102d557600080fd5b506102de610a9e565b6040516102eb9190612de1565b60405180910390f35b34801561030057600080fd5b50610309610aa4565b6040516103169190612e5b565b60405180910390f35b34801561032b57600080fd5b50610334610aca565b6040516103419190612de1565b60405180910390f35b34801561035657600080fd5b5061035f610ad4565b60405161036c9190612de1565b60405180910390f35b34801561038157600080fd5b5061039c60048036038101906103979190612e76565b610ada565b6040516103a99190612db7565b60405180910390f35b3480156103be57600080fd5b506103c7610afa565b6040516103d49190612de1565b60405180910390f35b3480156103e957600080fd5b5061040460048036038101906103ff9190612ea3565b610b00565b6040516104119190612db7565b60405180910390f35b34801561042657600080fd5b5061042f610b2f565b60405161043c9190612f12565b60405180910390f35b34801561045157600080fd5b5061046c60048036038101906104679190612d5c565b610b38565b6040516104799190612db7565b60405180910390f35b34801561048e57600080fd5b506104a960048036038101906104a49190612f2d565b610b6f565b005b3480156104b757600080fd5b506104c0610c3d565b6040516104cd9190612fa3565b60405180910390f35b3480156104e257600080fd5b506104eb610c61565b6040516104f89190612db7565b60405180910390f35b34801561050d57600080fd5b5061052860048036038101906105239190612e76565b610c74565b6040516105359190612db7565b60405180910390f35b34801561054a57600080fd5b50610553610cca565b6040516105609190612fdf565b60405180910390f35b34801561057557600080fd5b5061057e610cf0565b60405161058b9190612de1565b60405180910390f35b3480156105a057600080fd5b506105bb60048036038101906105b69190612e76565b610cf6565b6040516105c89190612de1565b60405180910390f35b3480156105dd57600080fd5b506105e6610d3e565b005b3480156105f457600080fd5b5061060f600480360381019061060a9190612f2d565b610dc6565b005b34801561061d57600080fd5b5061063860048036038101906106339190612ffa565b610e94565b005b34801561064657600080fd5b50610661600480360381019061065c9190612ffa565b610f52565b005b34801561066f57600080fd5b50610678610fd8565b6040516106859190612fdf565b60405180910390f35b34801561069a57600080fd5b506106a3610ffe565b6040516106b09190612de1565b60405180910390f35b3480156106c557600080fd5b506106ce611004565b6040516106db9190612de1565b60405180910390f35b3480156106f057600080fd5b506106f961100a565b6040516107069190612fa3565b60405180910390f35b34801561071b57600080fd5b50610724611030565b6040516107319190612fa3565b60405180910390f35b34801561074657600080fd5b5061074f61105a565b60405161075c9190612ca1565b60405180910390f35b34801561077157600080fd5b5061078c60048036038101906107879190612d5c565b6110ec565b6040516107999190612db7565b60405180910390f35b3480156107ae57600080fd5b506107c960048036038101906107c49190612d5c565b611163565b6040516107d69190612db7565b60405180910390f35b3480156107eb57600080fd5b5061080660048036038101906108019190613053565b611186565b005b34801561081457600080fd5b5061082f600480360381019061082a9190613053565b61125d565b005b34801561083d57600080fd5b5061085860048036038101906108539190613093565b611414565b005b34801561086657600080fd5b5061086f6114e4565b60405161087c9190612de1565b60405180910390f35b34801561089157600080fd5b5061089a6114ea565b6040516108a79190612de1565b60405180910390f35b3480156108bc57600080fd5b506108d760048036038101906108d291906130ec565b6114f0565b005b3480156108e557600080fd5b5061090060048036038101906108fb919061312c565b6115f2565b60405161090d9190612de1565b60405180910390f35b34801561092257600080fd5b5061092b611679565b6040516109389190612de1565b60405180910390f35b34801561094d57600080fd5b5061095661167f565b6040516109639190612de1565b60405180910390f35b34801561097857600080fd5b50610981611685565b60405161098e9190612de1565b60405180910390f35b3480156109a357600080fd5b506109be60048036038101906109b99190612ffa565b61168b565b005b3480156109cc57600080fd5b506109e760048036038101906109e29190612e76565b611749565b005b6060600380546109f89061319b565b80601f0160208091040260200160405190810160405280929190818152602001828054610a249061319b565b8015610a715780601f10610a4657610100808354040283529160200191610a71565b820191906000526020600020905b815481529060010190602001808311610a5457829003601f168201915b5050505050905090565b600080610a86611840565b9050610a93818585611848565b600191505092915050565b600f5481565b600660009054906101000a900473ffffffffffffffffffffffffffffffffffffffff1681565b6000600254905090565b60115481565b60176020528060005260406000206000915054906101000a900460ff1681565b600c5481565b600080610b0b611840565b9050610b18858285611a11565b610b23858585611a9d565b60019150509392505050565b60006012905090565b600080610b43611840565b9050610b64818585610b5585896115f2565b610b5f91906131fb565b611848565b600191505092915050565b610b77611840565b73ffffffffffffffffffffffffffffffffffffffff16610b95611030565b73ffffffffffffffffffffffffffffffffffffffff1614610beb576040517f08c379a0000000000000000000000000000000000000000000000000000000008152600401610be29061327b565b60405180910390fd5b83600a8190555082600b8190555081600c8190555080600d81905550600d54600c54600b54600a54610c1d91906131fb565b610c2791906131fb565b610c3191906131fb565b60138190555050505050565b7f000000000000000000000000000000000000000000000000000000000000000081565b601460019054906101000a900460ff1681565b6000601860008373ffffffffffffffffffffffffffffffffffffffff1673ffffffffffffffffffffffffffffffffffffffff16815260200190815260200160002060009054906101000a900460ff169050919050565b601560009054906101000a900473ffffffffffffffffffffffffffffffffffffffff1681565b600b5481565b60008060008373ffffffffffffffffffffffffffffffffffffffff1673ffffffffffffffffffffffffffffffffffffffff168152602001908152602001600020549050919050565b610d46611840565b73ffffffffffffffffffffffffffffffffffffffff16610d64611030565b73ffffffffffffffffffffffffffffffffffffffff1614610dba576040517f08c379a0000000000000000000000000000000000000000000000000000000008152600401610db19061327b565b60405180910390fd5b610dc460006121af565b565b610dce611840565b73ffffffffffffffffffffffffffffffffffffffff16610dec611030565b73ffffffffffffffffffffffffffffffffffffffff1614610e42576040517f08c379a0000000000000000000000000000000000000000000000000000000008152600401610e399061327b565b60405180910390fd5b83600f81905550826010819055508160118190555080601281905550601254601154601054600f54610e7491906131fb565b610e7e91906131fb565b610e8891906131fb565b60138190555050505050565b610e9c611840565b73ffffffffffffffffffffffffffffffffffffffff16610eba611030565b73ffffffffffffffffffffffffffffffffffffffff1614610f10576040517f08c379a0000000000000000000000000000000000000000000000000000000008152600401610f079061327b565b60405180910390fd5b600081118015610f21575060648111155b610f2a57600080fd5b6064610f34610aca565b82610f3f919061329b565b610f49919061330c565b60098190555050565b610f5a611840565b73ffffffffffffffffffffffffffffffffffffffff16610f78611030565b73ffffffffffffffffffffffffffffffffffffffff1614610fce576040517f08c379a0000000000000000000000000000000000000000000000000000000008152600401610fc59061327b565b60405180910390fd5b8060078190555050565b601460029054906101000a900473ffffffffffffffffffffffffffffffffffffffff1681565b600d5481565b60125481565b601660009054906101000a900473ffffffffffffffffffffffffffffffffffffffff1681565b6000600560009054906101000a900473ffffffffffffffffffffffffffffffffffffffff16905090565b6060600480546110699061319b565b80601f01602080910402602001604051908101604052809291908181526020018280546110959061319b565b80156110e25780601f106110b7576101008083540402835291602001916110e2565b820191906000526020600020905b8154815290600101906020018083116110c557829003601f168201915b5050505050905090565b6000806110f7611840565b9050600061110582866115f2565b90508381101561114a576040517f08c379a0000000000000000000000000000000000000000000000000000000008152600401611141906133af565b60405180910390fd5b6111578286868403611848565b60019250505092915050565b60008061116e611840565b905061117b818585611a9d565b600191505092915050565b61118e611840565b73ffffffffffffffffffffffffffffffffffffffff166111ac611030565b73ffffffffffffffffffffffffffffffffffffffff1614611202576040517f08c379a00000000000000000000000000000000000000000000000000000000081526004016111f99061327b565b60405180910390fd5b80601760008473ffffffffffffffffffffffffffffffffffffffff1673ffffffffffffffffffffffffffffffffffffffff16815260200190815260200160002060006101000a81548160ff0219169083151502179055505050565b611265611840565b73ffffffffffffffffffffffffffffffffffffffff16611283611030565b73ffffffffffffffffffffffffffffffffffffffff16146112d9576040517f08c379a00000000000000000000000000000000000000000000000000000000081526004016112d09061327b565b60405180910390fd5b801515601860008473ffffffffffffffffffffffffffffffffffffffff1673ffffffffffffffffffffffffffffffffffffffff16815260200190815260200160002060009054906101000a900460ff1615150361136b576040517f08c379a000000000000000000000000000000000000000000000000000000000815260040161136290613441565b60405180910390fd5b80601860008473ffffffffffffffffffffffffffffffffffffffff1673ffffffffffffffffffffffffffffffffffffffff16815260200190815260200160002060006101000a81548160ff0219169083151502179055508173ffffffffffffffffffffffffffffffffffffffff167f9d8f7706ea1113d1a167b526eca956215946dd36cc7df39eb16180222d8b5df7826040516114089190612db7565b60405180910390a25050565b61141c611840565b73ffffffffffffffffffffffffffffffffffffffff1661143a611030565b73ffffffffffffffffffffffffffffffffffffffff1614611490576040517f08c379a00000000000000000000000000000000000000000000000000000000081526004016114879061327b565b60405180910390fd5b80601460016101000a81548160ff0219169083151502179055507f53726dfcaf90650aa7eb35524f4d3220f07413c8d6cb404cc8c18bf5591bc159816040516114d99190612db7565b60405180910390a150565b60085481565b600a5481565b6114f8611840565b73ffffffffffffffffffffffffffffffffffffffff16611516611030565b73ffffffffffffffffffffffffffffffffffffffff161461156c576040517f08c379a00000000000000000000000000000000000000000000000000000000081526004016115639061327b565b60405180910390fd5b81601460026101000a81548173ffffffffffffffffffffffffffffffffffffffff021916908373ffffffffffffffffffffffffffffffffffffffff16021790555080601560006101000a81548173ffffffffffffffffffffffffffffffffffffffff021916908373ffffffffffffffffffffffffffffffffffffffff1602179055505050565b6000600160008473ffffffffffffffffffffffffffffffffffffffff1673ffffffffffffffffffffffffffffffffffffffff16815260200190815260200160002060008373ffffffffffffffffffffffffffffffffffffffff1673ffffffffffffffffffffffffffffffffffffffff16815260200190815260200160002054905092915050565b60075481565b60095481565b60105481565b611693611840565b73ffffffffffffffffffffffffffffffffffffffff166116b1611030565b73ffffffffffffffffffffffffffffffffffffffff1614611707576040517f08c379a00000000000000000000000000000000000000000000000000000000081526004016116fe9061327b565b60405180910390fd5b600081118015611718575060648111155b61172157600080fd5b606461172b610aca565b82611736919061329b565b611740919061330c565b60088190555050565b611751611840565b73ffffffffffffffffffffffffffffffffffffffff1661176f611030565b73ffffffffffffffffffffffffffffffffffffffff16146117c5576040517f08c379a00000000000000000000000000000000000000000000000000000000081526004016117bc9061327b565b60405180910390fd5b600073ffffffffffffffffffffffffffffffffffffffff168173ffffffffffffffffffffffffffffffffffffffff1603611834576040517f08c379a000000000000000000000000000000000000000000000000000000000815260040161182b906134d3565b60405180910390fd5b61183d816121af565b50565b600033905090565b600073ffffffffffffffffffffffffffffffffffffffff168373ffffffffffffffffffffffffffffffffffffffff16036118b7576040517f08c379a00000000000000000000000000000000000000000000000000000000081526004016118ae90613565565b60405180910390fd5b600073ffffffffffffffffffffffffffffffffffffffff168273ffffffffffffffffffffffffffffffffffffffff1603611926576040517f08c379a000000000000000000000000000000000000000000000000000000000815260040161191d906135f7565b60405180910390fd5b80600160008573ffffffffffffffffffffffffffffffffffffffff1673ffffffffffffffffffffffffffffffffffffffff16815260200190815260200160002060008473ffffffffffffffffffffffffffffffffffffffff1673ffffffffffffffffffffffffffffffffffffffff168152602001908152602001600020819055508173ffffffffffffffffffffffffffffffffffffffff168373ffffffffffffffffffffffffffffffffffffffff167f8c5be1e5ebec7d5bd14f71427d1e84f3dd0314c0f7b2291e5b200ac8c7c3b92583604051611a049190612de1565b60405180910390a3505050565b6000611a1d84846115f2565b90507fffffffffffffffffffffffffffffffffffffffffffffffffffffffffffffffff8114611a975781811015611a89576040517f08c379a0000000000000000000000000000000000000000000000000000000008152600401611a8090613663565b60405180910390fd5b611a968484848403611848565b5b50505050565b600073ffffffffffffffffffffffffffffffffffffffff168373ffffffffffffffffffffffffffffffffffffffff1603611b0c576040517f08c379a0000000000000000000000000000000000000000000000000000000008152600401611b03906136f5565b60405180910390fd5b600073ffffffffffffffffffffffffffffffffffffffff168273ffffffffffffffffffffffffffffffffffffffff1603611b7b576040517f08c379a0000000000000000000000000000000000000000000000000000000008152600401611b7290613787565b60405180910390fd5b601760008473ffffffffffffffffffffffffffffffffffffffff1673ffffffffffffffffffffffffffffffffffffffff16815260200190815260200160002060009054906101000a900460ff16158015611c1f5750601760008373ffffffffffffffffffffffffffffffffffffffff1673ffffffffffffffffffffffffffffffffffffffff16815260200190815260200160002060009054906101000a900460ff16155b611c5e576040517f08c379a0000000000000000000000000000000000000000000000000000000008152600401611c55906137f3565b60405180910390fd5b60008103611c7757611c7283836000612275565b6121aa565b601860008473ffffffffffffffffffffffffffffffffffffffff1673ffffffffffffffffffffffffffffffffffffffff16815260200190815260200160002060009054906101000a900460ff16158015611d1b5750601860008373ffffffffffffffffffffffffffffffffffffffff1673ffffffffffffffffffffffffffffffffffffffff16815260200190815260200160002060009054906101000a900460ff16155b15611d6657600854811115611d65576040517f08c379a0000000000000000000000000000000000000000000000000000000008152600401611d5c90613885565b60405180910390fd5b5b7f000000000000000000000000000000000000000000000000000000000000000073ffffffffffffffffffffffffffffffffffffffff168373ffffffffffffffffffffffffffffffffffffffff16148015611e0b5750601860008473ffffffffffffffffffffffffffffffffffffffff1673ffffffffffffffffffffffffffffffffffffffff16815260200190815260200160002060009054906101000a900460ff16155b8015611e615750601860008373ffffffffffffffffffffffffffffffffffffffff1673ffffffffffffffffffffffffffffffffffffffff16815260200190815260200160002060009054906101000a900460ff16155b15611ec5576000611e7183610cf6565b90506009548282611e8291906131fb565b1115611ec3576040517f08c379a0000000000000000000000000000000000000000000000000000000008152600401611eba90613917565b60405180910390fd5b505b6000611ed030610cf6565b905060006007548210159050808015611ef65750601460009054906101000a900460ff16155b8015611f4d57507f000000000000000000000000000000000000000000000000000000000000000073ffffffffffffffffffffffffffffffffffffffff168473ffffffffffffffffffffffffffffffffffffffff16145b8015611f655750601460019054906101000a900460ff165b15611f79576007549150611f78826124f4565b5b601860008673ffffffffffffffffffffffffffffffffffffffff1673ffffffffffffffffffffffffffffffffffffffff16815260200190815260200160002060009054906101000a900460ff1615801561201d5750601860008573ffffffffffffffffffffffffffffffffffffffff1673ffffffffffffffffffffffffffffffffffffffff16815260200190815260200160002060009054906101000a900460ff16155b1561219c576000807f000000000000000000000000000000000000000000000000000000000000000073ffffffffffffffffffffffffffffffffffffffff168773ffffffffffffffffffffffffffffffffffffffff16036120be576064600d54600e5461208a9190613937565b86612095919061329b565b61209f919061330c565b91506064600d54866120b1919061329b565b6120bb919061330c565b90505b7f000000000000000000000000000000000000000000000000000000000000000073ffffffffffffffffffffffffffffffffffffffff168673ffffffffffffffffffffffffffffffffffffffff16036121575760646012546013546121239190613937565b8661212e919061329b565b612138919061330c565b915060646012548661214a919061329b565b612154919061330c565b90505b808261216391906131fb565b8561216e9190613937565b94506000811115612184576121838782612700565b5b600082111561219957612198873084612275565b5b50505b6121a7858585612275565b50505b505050565b6000600560009054906101000a900473ffffffffffffffffffffffffffffffffffffffff16905081600560006101000a81548173ffffffffffffffffffffffffffffffffffffffff021916908373ffffffffffffffffffffffffffffffffffffffff1602179055508173ffffffffffffffffffffffffffffffffffffffff168173ffffffffffffffffffffffffffffffffffffffff167f8be0079c531659141344cd1fd0a4f28419497f9722a3daafe3b4186f6b6457e060405160405180910390a35050565b600073ffffffffffffffffffffffffffffffffffffffff168373ffffffffffffffffffffffffffffffffffffffff16036122e4576040517f08c379a00000000000000000000000000000000000000000000000000000000081526004016122db906136f5565b60405180910390fd5b600073ffffffffffffffffffffffffffffffffffffffff168273ffffffffffffffffffffffffffffffffffffffff1603612353576040517f08c379a000000000000000000000000000000000000000000000000000000000815260040161234a90613787565b60405180910390fd5b61235e8383836128d6565b60008060008573ffffffffffffffffffffffffffffffffffffffff1673ffffffffffffffffffffffffffffffffffffffff168152602001908152602001600020549050818110156123e4576040517f08c379a00000000000000000000000000000000000000000000000000000000081526004016123db906139dd565b60405180910390fd5b8181036000808673ffffffffffffffffffffffffffffffffffffffff1673ffffffffffffffffffffffffffffffffffffffff16815260200190815260200160002081905550816000808573ffffffffffffffffffffffffffffffffffffffff1673ffffffffffffffffffffffffffffffffffffffff168152602001908152602001600020600082825461247791906131fb565b925050819055508273ffffffffffffffffffffffffffffffffffffffff168473ffffffffffffffffffffffffffffffffffffffff167fddf252ad1be2c89b69c2b068fc378daa952ba7f163c4a11628f55a4df523b3ef846040516124db9190612de1565b60405180910390a36124ee8484846128db565b50505050565b6001601460006101000a81548160ff02191690831515021790555060006012546013546125219190613937565b600f548361252f919061329b565b612539919061330c565b9050600060028261254a919061330c565b90506000818361255a9190613937565b9050600047905061256a836128e0565b600081476125789190613937565b90506125848382612b59565b7f28fc98272ce761178794ad6768050fea1648e07f1e2ffe15afd3a290f838148684826040516125b59291906139fd565b60405180910390a16125d185876125cc9190613937565b6128e0565b6000600f546012546013546125e69190613937565b6125f09190613937565b601154476125fe919061329b565b612608919061330c565b9050601560009054906101000a900473ffffffffffffffffffffffffffffffffffffffff1673ffffffffffffffffffffffffffffffffffffffff166108fc829081150290604051600060405180830381858888f19350505050158015612672573d6000803e3d6000fd5b50601460029054906101000a900473ffffffffffffffffffffffffffffffffffffffff1673ffffffffffffffffffffffffffffffffffffffff166108fc479081150290604051600060405180830381858888f193505050501580156126db573d6000803e3d6000fd5b505050505050506000601460006101000a81548160ff02191690831515021790555050565b600073ffffffffffffffffffffffffffffffffffffffff168273ffffffffffffffffffffffffffffffffffffffff160361276f576040517f08c379a000000000000000000000000000000000000000000000000000000000815260040161276690613a98565b60405180910390fd5b61277b826000836128d6565b60008060008473ffffffffffffffffffffffffffffffffffffffff1673ffffffffffffffffffffffffffffffffffffffff16815260200190815260200160002054905081811015612801576040517f08c379a00000000000000000000000000000000000000000000000000000000081526004016127f890613b2a565b60405180910390fd5b8181036000808573ffffffffffffffffffffffffffffffffffffffff1673ffffffffffffffffffffffffffffffffffffffff1681526020019081526020016000208190555081600260008282546128589190613937565b92505081905550600073ffffffffffffffffffffffffffffffffffffffff168373ffffffffffffffffffffffffffffffffffffffff167fddf252ad1be2c89b69c2b068fc378daa952ba7f163c4a11628f55a4df523b3ef846040516128bd9190612de1565b60405180910390a36128d1836000846128db565b505050565b505050565b505050565b6000600267ffffffffffffffff8111156128fd576128fc613b4a565b5b60405190808252806020026020018201604052801561292b5781602001602082028036833780820191505090505b509050308160008151811061294357612942613b79565b5b602002602001019073ffffffffffffffffffffffffffffffffffffffff16908173ffffffffffffffffffffffffffffffffffffffff1681525050600660009054906101000a900473ffffffffffffffffffffffffffffffffffffffff1673ffffffffffffffffffffffffffffffffffffffff1663ad5c46486040518163ffffffff1660e01b8152600401602060405180830381865afa1580156129ea573d6000803e3d6000fd5b505050506040513d601f19601f82011682018060405250810190612a0e9190613bbd565b81600181518110612a2257612a21613b79565b5b602002602001019073ffffffffffffffffffffffffffffffffffffffff16908173ffffffffffffffffffffffffffffffffffffffff168152505081612a8930600660009054906101000a900473ffffffffffffffffffffffffffffffffffffffff166115f2565b1015612abf57612abe30600660009054906101000a900473ffffffffffffffffffffffffffffffffffffffff16600019611848565b5b600660009054906101000a900473ffffffffffffffffffffffffffffffffffffffff1673ffffffffffffffffffffffffffffffffffffffff1663791ac9478360008430426040518663ffffffff1660e01b8152600401612b23959493929190613ce3565b600060405180830381600087803b158015612b3d57600080fd5b505af1158015612b51573d6000803e3d6000fd5b505050505050565b600660009054906101000a900473ffffffffffffffffffffffffffffffffffffffff1673ffffffffffffffffffffffffffffffffffffffff1663f305d719823085600080612ba5611030565b426040518863ffffffff1660e01b8152600401612bc796959493929190613d3d565b60606040518083038185885af1158015612be5573d6000803e3d6000fd5b50505050506040513d601f19601f82011682018060405250810190612c0a9190613db3565b5050505050565b600081519050919050565b600082825260208201905092915050565b60005b83811015612c4b578082015181840152602081019050612c30565b60008484015250505050565b6000601f19601f8301169050919050565b6000612c7382612c11565b612c7d8185612c1c565b9350612c8d818560208601612c2d565b612c9681612c57565b840191505092915050565b60006020820190508181036000830152612cbb8184612c68565b905092915050565b600080fd5b600073ffffffffffffffffffffffffffffffffffffffff82169050919050565b6000612cf382612cc8565b9050919050565b612d0381612ce8565b8114612d0e57600080fd5b50565b600081359050612d2081612cfa565b92915050565b6000819050919050565b612d3981612d26565b8114612d4457600080fd5b50565b600081359050612d5681612d30565b92915050565b60008060408385031215612d7357612d72612cc3565b5b6000612d8185828601612d11565b9250506020612d9285828601612d47565b9150509250929050565b60008115159050919050565b612db181612d9c565b82525050565b6000602082019050612dcc6000830184612da8565b92915050565b612ddb81612d26565b82525050565b6000602082019050612df66000830184612dd2565b92915050565b6000819050919050565b6000612e21612e1c612e1784612cc8565b612dfc565b612cc8565b9050919050565b6000612e3382612e06565b9050919050565b6000612e4582612e28565b9050919050565b612e5581612e3a565b82525050565b6000602082019050612e706000830184612e4c565b92915050565b600060208284031215612e8c57612e8b612cc3565b5b6000612e9a84828501612d11565b91505092915050565b600080600060608486031215612ebc57612ebb612cc3565b5b6000612eca86828701612d11565b9350506020612edb86828701612d11565b9250506040612eec86828701612d47565b9150509250925092565b600060ff82169050919050565b612f0c81612ef6565b82525050565b6000602082019050612f276000830184612f03565b92915050565b60008060008060808587031215612f4757612f46612cc3565b5b6000612f5587828801612d47565b9450506020612f6687828801612d47565b9350506040612f7787828801612d47565b9250506060612f8887828801612d47565b91505092959194509250565b612f9d81612ce8565b82525050565b6000602082019050612fb86000830184612f94565b92915050565b6000612fc982612cc8565b9050919050565b612fd981612fbe565b82525050565b6000602082019050612ff46000830184612fd0565b92915050565b6000602082840312156130105761300f612cc3565b5b600061301e84828501612d47565b91505092915050565b61303081612d9c565b811461303b57600080fd5b50565b60008135905061304d81613027565b92915050565b6000806040838503121561306a57613069612cc3565b5b600061307885828601612d11565b92505060206130898582860161303e565b9150509250929050565b6000602082840312156130a9576130a8612cc3565b5b60006130b78482850161303e565b91505092915050565b6130c981612fbe565b81146130d457600080fd5b50565b6000813590506130e6816130c0565b92915050565b6000806040838503121561310357613102612cc3565b5b6000613111858286016130d7565b9250506020613122858286016130d7565b9150509250929050565b6000806040838503121561314357613142612cc3565b5b600061315185828601612d11565b925050602061316285828601612d11565b9150509250929050565b7f4e487b7100000000000000000000000000000000000000000000000000000000600052602260045260246000fd5b600060028204905060018216806131b357607f821691505b6020821081036131c6576131c561316c565b5b50919050565b7f4e487b7100000000000000000000000000000000000000000000000000000000600052601160045260246000fd5b600061320682612d26565b915061321183612d26565b9250828201905080821115613229576132286131cc565b5b92915050565b7f4f776e61626c653a2063616c6c6572206973206e6f7420746865206f776e6572600082015250565b6000613265602083612c1c565b91506132708261322f565b602082019050919050565b6000602082019050818103600083015261329481613258565b9050919050565b60006132a682612d26565b91506132b183612d26565b92508282026132bf81612d26565b915082820484148315176132d6576132d56131cc565b5b5092915050565b7f4e487b7100000000000000000000000000000000000000000000000000000000600052601260045260246000fd5b600061331782612d26565b915061332283612d26565b925082613332576133316132dd565b5b828204905092915050565b7f45524332303a2064656372656173656420616c6c6f77616e63652062656c6f7760008201527f207a65726f000000000000000000000000000000000000000000000000000000602082015250565b6000613399602583612c1c565b91506133a48261333d565b604082019050919050565b600060208201905081810360008301526133c88161338c565b9050919050565b7f4163636f756e7420697320616c7265616479207468652076616c7565206f662060008201527f276578636c756465642700000000000000000000000000000000000000000000602082015250565b600061342b602a83612c1c565b9150613436826133cf565b604082019050919050565b6000602082019050818103600083015261345a8161341e565b9050919050565b7f4f776e61626c653a206e6577206f776e657220697320746865207a65726f206160008201527f6464726573730000000000000000000000000000000000000000000000000000602082015250565b60006134bd602683612c1c565b91506134c882613461565b604082019050919050565b600060208201905081810360008301526134ec816134b0565b9050919050565b7f45524332303a20617070726f76652066726f6d20746865207a65726f2061646460008201527f7265737300000000000000000000000000000000000000000000000000000000602082015250565b600061354f602483612c1c565b915061355a826134f3565b604082019050919050565b6000602082019050818103600083015261357e81613542565b9050919050565b7f45524332303a20617070726f766520746f20746865207a65726f20616464726560008201527f7373000000000000000000000000000000000000000000000000000000000000602082015250565b60006135e1602283612c1c565b91506135ec82613585565b604082019050919050565b60006020820190508181036000830152613610816135d4565b9050919050565b7f45524332303a20696e73756666696369656e7420616c6c6f77616e6365000000600082015250565b600061364d601d83612c1c565b915061365882613617565b602082019050919050565b6000602082019050818103600083015261367c81613640565b9050919050565b7f45524332303a207472616e736665722066726f6d20746865207a65726f20616460008201527f6472657373000000000000000000000000000000000000000000000000000000602082015250565b60006136df602583612c1c565b91506136ea82613683565b604082019050919050565b6000602082019050818103600083015261370e816136d2565b9050919050565b7f45524332303a207472616e7366657220746f20746865207a65726f206164647260008201527f6573730000000000000000000000000000000000000000000000000000000000602082015250565b6000613771602383612c1c565b915061377c82613715565b604082019050919050565b600060208201905081810360008301526137a081613764565b9050919050565b7f426c61636b6c6973746564206164647265737300000000000000000000000000600082015250565b60006137dd601383612c1c565b91506137e8826137a7565b602082019050919050565b6000602082019050818103600083015261380c816137d0565b9050919050565b7f616d6f756e74206d757374206265206c657373207468616e206f72206571756160008201527f6c20746f206d61785478206c696d697400000000000000000000000000000000602082015250565b600061386f603083612c1c565b915061387a82613813565b604082019050919050565b6000602082019050818103600083015261389e81613862565b9050919050565b7f45786365656473206d6178696d756d2077616c6c657420746f6b656e20616d6f60008201527f756e742e00000000000000000000000000000000000000000000000000000000602082015250565b6000613901602483612c1c565b915061390c826138a5565b604082019050919050565b60006020820190508181036000830152613930816138f4565b9050919050565b600061394282612d26565b915061394d83612d26565b9250828203905081811115613965576139646131cc565b5b92915050565b7f45524332303a207472616e7366657220616d6f756e742065786365656473206260008201527f616c616e63650000000000000000000000000000000000000000000000000000602082015250565b60006139c7602683612c1c565b91506139d28261396b565b604082019050919050565b600060208201905081810360008301526139f6816139ba565b9050919050565b6000604082019050613a126000830185612dd2565b613a1f6020830184612dd2565b9392505050565b7f45524332303a206275726e2066726f6d20746865207a65726f2061646472657360008201527f7300000000000000000000000000000000000000000000000000000000000000602082015250565b6000613a82602183612c1c565b9150613a8d82613a26565b604082019050919050565b60006020820190508181036000830152613ab181613a75565b9050919050565b7f45524332303a206275726e20616d6f756e7420657863656564732062616c616e60008201527f6365000000000000000000000000000000000000000000000000000000000000602082015250565b6000613b14602283612c1c565b9150613b1f82613ab8565b604082019050919050565b60006020820190508181036000830152613b4381613b07565b9050919050565b7f4e487b7100000000000000000000000000000000000000000000000000000000600052604160045260246000fd5b7f4e487b7100000000000000000000000000000000000000000000000000000000600052603260045260246000fd5b600081519050613bb781612cfa565b92915050565b600060208284031215613bd357613bd2612cc3565b5b6000613be184828501613ba8565b91505092915050565b6000819050919050565b6000613c0f613c0a613c0584613bea565b612dfc565b612d26565b9050919050565b613c1f81613bf4565b82525050565b600081519050919050565b600082825260208201905092915050565b6000819050602082019050919050565b613c5a81612ce8565b82525050565b6000613c6c8383613c51565b60208301905092915050565b6000602082019050919050565b6000613c9082613c25565b613c9a8185613c30565b9350613ca583613c41565b8060005b83811015613cd6578151613cbd8882613c60565b9750613cc883613c78565b925050600181019050613ca9565b5085935050505092915050565b600060a082019050613cf86000830188612dd2565b613d056020830187613c16565b8181036040830152613d178186613c85565b9050613d266060830185612f94565b613d336080830184612dd2565b9695505050505050565b600060c082019050613d526000830189612f94565b613d5f6020830188612dd2565b613d6c6040830187613c16565b613d796060830186613c16565b613d866080830185612f94565b613d9360a0830184612dd2565b979650505050505050565b600081519050613dad81612d30565b92915050565b600080600060608486031215613dcc57613dcb612cc3565b5b6000613dda86828701613d9e565b9350506020613deb86828701613d9e565b9250506040613dfc86828701613d9e565b915050925092509256fea2646970667358221220c17fb5803818be67d6d8162c6ce3397ffb0e329edc5233a5bef963692f782c1664736f6c63430008110033",
  "linkReferences": {},
  "deployedLinkReferences": {}
}